{
  "contractName": "MetaturfAPIConsumer",
  "abi": [
    {
      "inputs": [],
      "stateMutability": "nonpayable",
      "type": "constructor"
    },
    {
      "anonymous": false,
      "inputs": [
        {
          "indexed": true,
          "internalType": "bytes32",
          "name": "id",
          "type": "bytes32"
        }
      ],
      "name": "ChainlinkCancelled",
      "type": "event"
    },
    {
      "anonymous": false,
      "inputs": [
        {
          "indexed": true,
          "internalType": "bytes32",
          "name": "id",
          "type": "bytes32"
        }
      ],
      "name": "ChainlinkFulfilled",
      "type": "event"
    },
    {
      "anonymous": false,
      "inputs": [
        {
          "indexed": true,
          "internalType": "bytes32",
          "name": "id",
          "type": "bytes32"
        }
      ],
      "name": "ChainlinkRequested",
      "type": "event"
    },
    {
      "inputs": [],
      "name": "winnerRawText",
      "outputs": [
        {
          "internalType": "string",
          "name": "",
          "type": "string"
        }
      ],
      "stateMutability": "view",
      "type": "function",
      "constant": true
    },
    {
      "inputs": [
        {
          "internalType": "uint256",
          "name": "raceid",
          "type": "uint256"
        }
      ],
      "name": "requestRaceWinner",
      "outputs": [
        {
          "internalType": "bytes32",
          "name": "requestId",
          "type": "bytes32"
        }
      ],
      "stateMutability": "nonpayable",
      "type": "function"
    },
    {
      "inputs": [
        {
          "internalType": "bytes32",
          "name": "_requestId",
          "type": "bytes32"
        },
        {
          "internalType": "bytes32",
          "name": "_winner",
          "type": "bytes32"
        }
      ],
      "name": "fulfillRaceWinner",
      "outputs": [],
      "stateMutability": "nonpayable",
      "type": "function"
    },
    {
      "inputs": [],
      "name": "withdrawLink",
      "outputs": [],
      "stateMutability": "nonpayable",
      "type": "function"
    }
  ],
  "bytecode": "0x608060405260016004553480156200001657600080fd5b50620000306200014c640100000000026401000000009004565b739dd3298dad96648e7fdf5632b9813d22bbb3eb61600b60006101000a81548173ffffffffffffffffffffffffffffffffffffffff021916908373ffffffffffffffffffffffffffffffffffffffff1602179055507f6234623932653337393930353436363262326136326664653164363362313233600c819055507f3964616137663531333061623434333961363364656534326131356431313961600d81905550670de0b6b3a7640000600e819055506040518060a001604052806063815260200162001b246063913960079080519060200190620001139291906200025f565b5060405180608001604052806048815260200162001adc6048913960089080519060200190620001459291906200025f565b506200030e565b6200021973c89bd4e1632d3a43cb03aaad5262cbe4038bc57173ffffffffffffffffffffffffffffffffffffffff166338cc48316040518163ffffffff167c010000000000000000000000000000000000000000000000000000000002815260040160206040518083038186803b158015620001c757600080fd5b505afa158015620001dc573d6000803e3d6000fd5b505050506040513d6020811015620001f357600080fd5b81019080805190602001909291905050506200021b640100000000026401000000009004565b565b80600260006101000a81548173ffffffffffffffffffffffffffffffffffffffff021916908373ffffffffffffffffffffffffffffffffffffffff16021790555050565b828054600181600116156101000203166002900490600052602060002090601f016020900481019282601f10620002a257805160ff1916838001178555620002d3565b82800160010185558215620002d3579182015b82811115620002d2578251825591602001919060010190620002b5565b5b509050620002e29190620002e6565b5090565b6200030b91905b8082111562000307576000816000905550600101620002ed565b5090565b90565b6117be806200031e6000396000f3fe608060405234801561001057600080fd5b5060043610610069576000357c0100000000000000000000000000000000000000000000000000000000900480638dc654a21461006e578063d42318af14610078578063de5ae39a146100b0578063eb06ab50146100f2575b600080fd5b610076610175565b005b6100ae6004803603604081101561008e57600080fd5b8101908080359060200190929190803590602001909291905050506103a7565b005b6100dc600480360360208110156100c657600080fd5b81019080803590602001909291905050506104e6565b6040518082815260200191505060405180910390f35b6100fa61078a565b6040518080602001828103825283818151815260200191508051906020019080838360005b8381101561013a57808201518184015260208101905061011f565b50505050905090810190601f1680156101675780820380516001836020036101000a031916815260200191505b509250505060405180910390f35b600061017f610828565b90508073ffffffffffffffffffffffffffffffffffffffff1663a9059cbb338373ffffffffffffffffffffffffffffffffffffffff166370a08231306040518263ffffffff167c0100000000000000000000000000000000000000000000000000000000028152600401808273ffffffffffffffffffffffffffffffffffffffff1673ffffffffffffffffffffffffffffffffffffffff16815260200191505060206040518083038186803b15801561023757600080fd5b505afa15801561024b573d6000803e3d6000fd5b505050506040513d602081101561026157600080fd5b81019080805190602001909291905050506040518363ffffffff167c0100000000000000000000000000000000000000000000000000000000028152600401808373ffffffffffffffffffffffffffffffffffffffff1673ffffffffffffffffffffffffffffffffffffffff16815260200182815260200192505050602060405180830381600087803b1580156102f757600080fd5b505af115801561030b573d6000803e3d6000fd5b505050506040513d602081101561032157600080fd5b81019080805190602001909291905050506103a4576040517f08c379a00000000000000000000000000000000000000000000000000000000081526004018080602001828103825260128152602001807f556e61626c6520746f207472616e73666572000000000000000000000000000081525060200191505060405180910390fd5b50565b816005600082815260200190815260200160002060009054906101000a900473ffffffffffffffffffffffffffffffffffffffff1673ffffffffffffffffffffffffffffffffffffffff163373ffffffffffffffffffffffffffffffffffffffff161461045f576040517f08c379a00000000000000000000000000000000000000000000000000000000081526004018080602001828103825260288152602001806117616028913960400191505060405180910390fd5b6005600082815260200190815260200160002060006101000a81549073ffffffffffffffffffffffffffffffffffffffff0219169055807f7cc135e0cebb02c3480ae5d74d377283180a2601f8f644edf7987b009316c63a60405160405180910390a26104cb82610852565b600690805190602001906104e0929190611611565b50505050565b60006104f0611691565b610520600d543063d42318af7c010000000000000000000000000000000000000000000000000000000002610a61565b9050606061052d84610a92565b905060606040518060400160405280600c81526020017f26666f726d61743d6a736f6e0000000000000000000000000000000000000000815250905060606008838360405160200180848054600181600116156101000203166002900480156105cd5780601f106105ab5761010080835404028352918201916105cd565b820191906000526020600020905b8154815290600101906020018083116105b9575b505083805190602001908083835b602083106105fe57805182526020820191506020810190506020830392506105db565b6001836020036101000a03801982511681845116808217855250505050505090500182805190602001908083835b6020831061064f578051825260208201915060208101905060208303925061062c565b6001836020036101000a038019825116818451168082178552505050505050905001935050505060405160208183030381529060405290506106d16040518060400160405280600381526020017f67657400000000000000000000000000000000000000000000000000000000008152508286610c8d9092919063ffffffff16565b6107506040518060400160405280600481526020017f70617468000000000000000000000000000000000000000000000000000000008152506040518060400160405280600e81526020017f646174612e686f727365696e666f00000000000000000000000000000000000081525086610c8d9092919063ffffffff16565b61077f600b60009054906101000a900473ffffffffffffffffffffffffffffffffffffffff1685600e54610cc0565b945050505050919050565b60068054600181600116156101000203166002900480601f0160208091040260200160405190810160405280929190818152602001828054600181600116156101000203166002900480156108205780601f106107f557610100808354040283529160200191610820565b820191906000526020600020905b81548152906001019060200180831161080357829003601f168201915b505050505081565b6000600260009054906101000a900473ffffffffffffffffffffffffffffffffffffffff16905090565b606060008090505b60208160ff161080156108e3575060007f010000000000000000000000000000000000000000000000000000000000000002838260ff166020811061089b57fe5b1a7f0100000000000000000000000000000000000000000000000000000000000000027effffffffffffffffffffffffffffffffffffffffffffffffffffffffffffff191614155b156108f557808060010191505061085a565b60608160ff1667ffffffffffffffff8111801561091157600080fd5b506040519080825280601f01601f1916602001820160405280156109445781602001600182028036833780820191505090505b509050600091505b60208260ff161080156109d5575060007f010000000000000000000000000000000000000000000000000000000000000002848360ff166020811061098d57fe5b1a7f0100000000000000000000000000000000000000000000000000000000000000027effffffffffffffffffffffffffffffffffffffffffffffffffffffffffffff191614155b15610a5757838260ff16602081106109e957fe5b1a7f010000000000000000000000000000000000000000000000000000000000000002818360ff1681518110610a1b57fe5b60200101907effffffffffffffffffffffffffffffffffffffffffffffffffffffffffffff1916908160001a905350818060010192505061094c565b8092505050919050565b610a69611691565b610a71611691565b610a8885858584610fa0909392919063ffffffff16565b9150509392505050565b606060006064905060608167ffffffffffffffff81118015610ab357600080fd5b506040519080825280601f01601f191660200182016040528015610ae65781602001600182028036833780820191505090505b50905060008090505b60008514610b80576000600a8681610b0357fe5b069050600a8681610b1057fe5b049550806030017f010000000000000000000000000000000000000000000000000000000000000002838380600101945081518110610b4b57fe5b60200101907effffffffffffffffffffffffffffffffffffffffffffffffffffffffffffff1916908160001a90535050610aef565b60608167ffffffffffffffff81118015610b9957600080fd5b506040519080825280601f01601f191660200182016040528015610bcc5781602001600182028036833780820191505090505b50905060008090505b82811015610c80578381600185030381518110610bee57fe5b60200101517f010000000000000000000000000000000000000000000000000000000000000090047f010000000000000000000000000000000000000000000000000000000000000002828281518110610c4457fe5b60200101907effffffffffffffffffffffffffffffffffffffffffffffffffffffffffffff1916908160001a9053508080600101915050610bd5565b5080945050505050919050565b610ca482846080015161105090919063ffffffff16565b610cbb81846080015161105090919063ffffffff16565b505050565b600030600454604051602001808373ffffffffffffffffffffffffffffffffffffffff1673ffffffffffffffffffffffffffffffffffffffff166c0100000000000000000000000002815260140182815260200192505050604051602081830303815290604052805190602001209050600454836060018181525050836005600083815260200190815260200160002060006101000a81548173ffffffffffffffffffffffffffffffffffffffff021916908373ffffffffffffffffffffffffffffffffffffffff160217905550807fb5e6e01e79f91267dc17b4e6314d5d4d03593d2ceee0fbb452b750bd70ea5af960405160405180910390a2600260009054906101000a900473ffffffffffffffffffffffffffffffffffffffff1673ffffffffffffffffffffffffffffffffffffffff16634000aea08584610e0487611075565b6040518463ffffffff167c0100000000000000000000000000000000000000000000000000000000028152600401808473ffffffffffffffffffffffffffffffffffffffff1673ffffffffffffffffffffffffffffffffffffffff16815260200183815260200180602001828103825283818151815260200191508051906020019080838360005b83811015610ea7578082015181840152602081019050610e8c565b50505050905090810190601f168015610ed45780820380516001836020036101000a031916815260200191505b50945050505050602060405180830381600087803b158015610ef557600080fd5b505af1158015610f09573d6000803e3d6000fd5b505050506040513d6020811015610f1f57600080fd5b8101908080519060200190929190505050610f85576040517f08c379a000000000000000000000000000000000000000000000000000000000815260040180806020018281038252602381526020018061173e6023913960400191505060405180910390fd5b60016004600082825401925050819055508090509392505050565b610fa8611691565b610fb8856080015161010061125d565b508385600001818152505082856020019073ffffffffffffffffffffffffffffffffffffffff16908173ffffffffffffffffffffffffffffffffffffffff16815250508185604001907bffffffffffffffffffffffffffffffffffffffffffffffffffffffff191690817bffffffffffffffffffffffffffffffffffffffffffffffffffffffff191681525050849050949350505050565b61105d82600383516112b1565b611070818361140590919063ffffffff16565b505050565b606063404299467c01000000000000000000000000000000000000000000000000000000000260008084600001518560200151866040015187606001516001896080015160000151604051602401808973ffffffffffffffffffffffffffffffffffffffff1673ffffffffffffffffffffffffffffffffffffffff1681526020018881526020018781526020018673ffffffffffffffffffffffffffffffffffffffff1673ffffffffffffffffffffffffffffffffffffffff168152602001857bffffffffffffffffffffffffffffffffffffffffffffffffffffffff19167bffffffffffffffffffffffffffffffffffffffffffffffffffffffff1916815260200184815260200183815260200180602001828103825283818151815260200191508051906020019080838360005b838110156111c05780820151818401526020810190506111a5565b50505050905090810190601f1680156111ed5780820380516001836020036101000a031916815260200191505b509950505050505050505050604051602081830303815290604052907bffffffffffffffffffffffffffffffffffffffffffffffffffffffff19166020820180517bffffffffffffffffffffffffffffffffffffffffffffffffffffffff83818316178352505050509050919050565b6112656116fe565b60006020838161127157fe5b061461128a576020828161128157fe5b06602003820191505b81836020018181525050604051808452600081528281016020016040525082905092915050565b601781116112e1576112db8160058460ff169060020a0260ff16178461142790919063ffffffff16565b50611400565b60ff811161132657611309601860058460ff169060020a02178461142790919063ffffffff16565b50611320816001856114479092919063ffffffff16565b506113ff565b61ffff811161136c5761134f601960058460ff169060020a02178461142790919063ffffffff16565b50611366816002856114479092919063ffffffff16565b506113fe565b63ffffffff81116113b457611397601a60058460ff169060020a02178461142790919063ffffffff16565b506113ae816004856114479092919063ffffffff16565b506113fd565b67ffffffffffffffff81116113fc576113e3601b60058460ff169060020a02178461142790919063ffffffff16565b506113fa816008856114479092919063ffffffff16565b505b5b5b5b5b505050565b61140d6116fe565b61141f83846000015151848551611469565b905092915050565b61142f6116fe565b61143f8384600001515184611522565b905092915050565b61144f6116fe565b611460848560000151518585611570565b90509392505050565b6114716116fe565b825182111561147f57600080fd5b846020015182850111156114aa576114a98560026114a388602001518887016115d1565b026115ed565b5b6000808651805187602083010193508088870111156114c95787860182525b60208701925050505b602084106114f557805182526020820191506020810190506020840393506114d2565b60006001856020036101000a03905080198251168184511681811785525050879350505050949350505050565b61152a6116fe565b83602001518310611547576115468460028660200151026115ed565b5b8351805160208583010184815381861415611563576001820183525b5050508390509392505050565b6115786116fe565b8460200151848301111561159657611595856002868501026115ed565b5b60006001836101000a03905085518386820101858319825116178152815185880111156115c35784870182525b505085915050949350505050565b6000818311156115e3578290506115e7565b8190505b92915050565b606082600001519050611600838361125d565b5061160b8382611405565b50505050565b828054600181600116156101000203166002900490600052602060002090601f016020900481019282601f1061165257805160ff1916838001178555611680565b82800160010185558215611680579182015b8281111561167f578251825591602001919060010190611664565b5b50905061168d9190611718565b5090565b6040518060a0016040528060008019168152602001600073ffffffffffffffffffffffffffffffffffffffff16815260200160007bffffffffffffffffffffffffffffffffffffffffffffffffffffffff19168152602001600081526020016116f86116fe565b81525090565b604051806040016040528060608152602001600081525090565b61173a91905b8082111561173657600081600090555060010161171e565b5090565b9056fe756e61626c6520746f207472616e73666572416e6443616c6c20746f206f7261636c65536f75726365206d75737420626520746865206f7261636c65206f66207468652072657175657374a2646970667358221220138bd728a15b5e334ae46d22d47d5287d4f2a956b99bd4e332676ade1c57730a64736f6c6343000606003368747470733a2f2f6768646261646d696e2e6d657461747572662e636f6d2f726573742f726573745f776562332e7068703f7265736f757263653d67657477696e6e65722669643d68747470733a2f2f6768646261646d696e2e6d657461747572662e636f6d2f726573742f726573745f776562332e7068703f7265736f757263653d6c69737472616365732669643d3126646174653d323032313036313926666f726d61743d6a736f6e",
  "immutableReferences": {},
  "source": "// SPDX-License-Identifier: MIT\npragma solidity >=0.6.6;\n \nimport \"@chainlink/contracts/src/v0.6/ChainlinkClient.sol\";\n//import \"github.com/Arachnid/solidity-stringutils/strings.sol\";\n \ncontract MetaturfAPIConsumer is ChainlinkClient {\n  \n  //using strings for *;\n  \n    string public winnerRawText;\n    \n    string lastRacesRequest;\n    string raceWinnerRequest;\n \n    struct Horse {\n        uint horseid; // Puede ser la key del mapping\n        string name;\n        address owner;\n        uint wins;\n    }\n \n    struct Race {\n        uint raceid; //Puede ser la key del mapping\n        string racecourse;\n        string date;\n        string time;\n        Horse winner;\n    }\n \n    mapping (uint => Race) races;\n    mapping (uint => Horse) horses;\n    \n    address private oracle;\n    bytes32 private jobId_getLastRaces;\n    bytes32 private jobId_getRaceWinner;\n \n    uint256 private fee;\n    \n    /**\n     * Network: Kovan\n     * Chainlink - 0x2f90A6D021db21e1B2A077c5a37B3C7E75D15b7e\n     * Chainlink - 29fa9aa13bf1468788b7cc4a500a45b8\n     * Fee: 0.1 LINK\n     */\n    constructor() public {\n        setPublicChainlinkToken();\n        //oracle = 0xFb04D565FA31c7eDe8c98601C706aAD614175C68;\n        oracle = 0x9dD3298DAd96648E7fdF5632b9813D22Bbb3eb61;\n        jobId_getLastRaces = \"b4b92e3799054662b2a62fde1d63b123\";  //TODO\n        jobId_getRaceWinner = \"9daa7f5130ab4439a63dee42a15d119a\"; //Correcto\n        fee = 1 * 10 ** 18; // 1 LINK\n        \n        lastRacesRequest = \"https://ghdbadmin.metaturf.com/rest/rest_web3.php?resource=listraces&id=1&date=20210619&format=json\";\n        raceWinnerRequest = \"https://ghdbadmin.metaturf.com/rest/rest_web3.php?resource=getwinner&id=\";\n \n    }\n    \n    /**\n     * Create a Chainlink request to retrieve API response, find the target\n     * data, then multiply by 1000000000000000000 (to remove decimal places from data).\n     ************************************************************************************\n     *                                    STOP!                                         * \n     *         THIS FUNCTION WILL FAIL IF THIS CONTRACT DOES NOT OWN LINK               *\n     *         ----------------------------------------------------------               *\n     *         Learn how to obtain testnet LINK and fund this contract:                 *\n     *         ------- https://docs.chain.link/docs/acquire-link --------               *\n     *         ---- https://docs.chain.link/docs/fund-your-contract -----               *\n     *                                                                                  *\n     ************************************************************************************/\n    function requestRaceWinner(uint raceid) public returns (bytes32 requestId) {\n        Chainlink.Request memory request = buildChainlinkRequest(jobId_getRaceWinner, address(this), this.fulfillRaceWinner.selector);\n       \n       //Para declarar variables de tipo string dentro de funciones\n       //string memory mystring = \"foo2\";\n       string memory rid = uintToString(raceid);\n       string memory format = \"&format=json\";\n       \n        // Set the URL to perform the GET request on\n        //request.add(\"get\", \"https://ghdbadmin.metaturf.com/rest/rest_web3.php?resource=getwinner&id=7178&format=json\");\n        string memory requestb = string(abi.encodePacked(raceWinnerRequest, rid, format));\n        request.add(\"get\", requestb);\n        \n        // Set the path to find the desired data in the API response, where the response format is:\n        // {\"code\":1,\n        //   \"status\":200,\n        //   \"data\":{\n        //     \"horseinfo\":\"13882,GALILODGE (FR),1\"\n        //    }\n        // }\n \n        request.add(\"path\", \"data.horseinfo\");\n        \n        // Multiply the result by 1000000000000000000 to remove decimals\n        //int timesAmount = 10**18;\n        //request.addInt(\"times\", timesAmount);\n        \n        // Sends the request\n        return sendChainlinkRequestTo(oracle, request, fee);\n    }\n    \n    /**\n     * Receive the response in the form of bytes32\n     */ \n    function fulfillRaceWinner(bytes32 _requestId, bytes32 _winner) public recordChainlinkFulfillment(_requestId) {\n        winnerRawText = bytes32ToString(_winner);\n        /*\n        var s = winnerRawText.toSlice();\n        var delim = \",\".toSlice();\n        var parts = new string[](s.count(delim) + 1);\n        for(uint i = 0; i < parts.length; i++) {\n            parts[i] = s.split(delim).toString();\n        }\n        \n        //TODO: Investigar como hacer bien las asignaciones del mapping\n        races[part[0]].winner.horseid = part[1];\n        horses[part[1]].name = part[2];\n        horses[part[1]].wins = part[3];\n        */\n        return;\n    }\n    \n    \n    /**\n     * Withdraw LINK from this contract\n     * \n     * NOTE: DO NOT USE THIS IN PRODUCTION AS IT CAN BE CALLED BY ANY ADDRESS.\n     * THIS IS PURELY FOR EXAMPLE PURPOSES ONLY.\n     */\n    function withdrawLink() external {\n        LinkTokenInterface linkToken = LinkTokenInterface(chainlinkTokenAddress());\n        require(linkToken.transfer(msg.sender, linkToken.balanceOf(address(this))), \"Unable to transfer\");\n    }\n    \n    //////////////////////\n    // HELPER FUNCTIONS //\n    //////////////////////\n    function bytes32ToString(bytes32 _bytes32) internal pure returns (string memory) {\n        uint8 i = 0;\n        while(i < 32 && _bytes32[i] != 0) {\n            i++;\n        }\n        bytes memory bytesArray = new bytes(i);\n        for (i = 0; i < 32 && _bytes32[i] != 0; i++) {\n            bytesArray[i] = _bytes32[i];\n        }\n        return string(bytesArray);\n    }\n    \n    //https://ethereum.stackexchange.com/questions/10811/solidity-concatenate-uint-into-a-string\n    function uintToString(uint v) internal pure returns (string memory) {\n        uint maxlength = 100;\n        bytes memory reversed = new bytes(maxlength);\n        uint i = 0;\n        while (v != 0) {\n            uint remainder = v % 10;\n            v = v / 10;\n            reversed[i++] = byte(uint8(48 + remainder));\n        }\n        bytes memory s = new bytes(i);\n        for (uint j = 0; j < i; j++) {\n            s[j] = reversed[i - 1 - j];\n        }\n        return string(s);\n    }\n    \n    //https://ethereum.stackexchange.com/questions/10811/solidity-concatenate-uint-into-a-string\n    function appendUintToString(string memory inStr, uint v) internal pure returns (string memory) {\n        uint maxlength = 100;\n        bytes memory reversed = new bytes(maxlength);\n        uint i = 0;\n        while (v != 0) {\n            uint remainder = v % 10;\n            v = v / 10;\n            reversed[i++] = byte(uint8(48 + remainder));\n        }\n        bytes memory inStrb = bytes(inStr);\n        bytes memory s = new bytes(inStrb.length + i);\n        uint j;\n        for (j = 0; j < inStrb.length; j++) {\n            s[j] = inStrb[j];\n        }\n        for (j = 0; j < i; j++) {\n            s[j + inStrb.length] = reversed[i - 1 - j];\n        }\n        return string(s);\n    }\n   \n   //https://ethereum.stackexchange.com/questions/10932/how-to-convert-string-to-int \n    function stringToUint(string memory s) internal pure returns (uint) {\n        bytes memory b = bytes(s);\n        uint result = 0;\n        for (uint i = 0; i < b.length; i++) { // c = b[i] was not needed\n            if (uint8(b[i]) >= 48 && uint8(b[i]) <= 57) {\n                result = result * 10 + (uint8(b[i]) - 48); // bytes and int are not compatible with the operator -.\n            }\n        }\n        return result; // this was missing\n    }\n}\n",
  "sourcePath": "/Users/dmolina/TFM/truffle-react/contracts/MetaturfAPIConsumer.sol",
  "compiler": {
    "name": "solc",
    "version": "0.6.6+commit.6c089d02.Emscripten.clang"
  },
  "schemaVersion": "3.4.3",
  "updatedAt": "2021-09-05T19:55:46.257Z",
  "networkType": "ethereum",
  "devdoc": {
    "methods": {}
  },
  "userdoc": {
    "methods": {
      "constructor": "Network: Kovan Chainlink - 0x2f90A6D021db21e1B2A077c5a37B3C7E75D15b7e Chainlink - 29fa9aa13bf1468788b7cc4a500a45b8 Fee: 0.1 LINK",
      "fulfillRaceWinner(bytes32,bytes32)": {
        "notice": "Receive the response in the form of bytes32"
      },
      "requestRaceWinner(uint256)": {
        "notice": "Create a Chainlink request to retrieve API response, find the target data, then multiply by 1000000000000000000 (to remove decimal places from data).************************************************************************************                                   STOP!                                         *         THIS FUNCTION WILL FAIL IF THIS CONTRACT DOES NOT OWN LINK               *        ----------------------------------------------------------               *        Learn how to obtain testnet LINK and fund this contract:                 *        ------- https://docs.chain.link/docs/acquire-link --------               *        ---- https://docs.chain.link/docs/fund-your-contract -----               *                                                                                 ************************************************************************************"
      },
      "withdrawLink()": {
        "notice": "Withdraw LINK from this contract      * NOTE: DO NOT USE THIS IN PRODUCTION AS IT CAN BE CALLED BY ANY ADDRESS. THIS IS PURELY FOR EXAMPLE PURPOSES ONLY."
      }
    }
  }
}