{
  "contractName": "Oracle",
  "abi": [
    {
      "inputs": [
        {
          "internalType": "address",
          "name": "_link",
          "type": "address"
        }
      ],
      "stateMutability": "nonpayable",
      "type": "constructor"
    },
    {
      "anonymous": false,
      "inputs": [
        {
          "indexed": true,
          "internalType": "bytes32",
          "name": "requestId",
          "type": "bytes32"
        }
      ],
      "name": "CancelOracleRequest",
      "type": "event"
    },
    {
      "anonymous": false,
      "inputs": [
        {
          "indexed": true,
          "internalType": "bytes32",
          "name": "specId",
          "type": "bytes32"
        },
        {
          "indexed": false,
          "internalType": "address",
          "name": "requester",
          "type": "address"
        },
        {
          "indexed": false,
          "internalType": "bytes32",
          "name": "requestId",
          "type": "bytes32"
        },
        {
          "indexed": false,
          "internalType": "uint256",
          "name": "payment",
          "type": "uint256"
        },
        {
          "indexed": false,
          "internalType": "address",
          "name": "callbackAddr",
          "type": "address"
        },
        {
          "indexed": false,
          "internalType": "bytes4",
          "name": "callbackFunctionId",
          "type": "bytes4"
        },
        {
          "indexed": false,
          "internalType": "uint256",
          "name": "cancelExpiration",
          "type": "uint256"
        },
        {
          "indexed": false,
          "internalType": "uint256",
          "name": "dataVersion",
          "type": "uint256"
        },
        {
          "indexed": false,
          "internalType": "bytes",
          "name": "data",
          "type": "bytes"
        }
      ],
      "name": "OracleRequest",
      "type": "event"
    },
    {
      "anonymous": false,
      "inputs": [
        {
          "indexed": true,
          "internalType": "address",
          "name": "previousOwner",
          "type": "address"
        },
        {
          "indexed": true,
          "internalType": "address",
          "name": "newOwner",
          "type": "address"
        }
      ],
      "name": "OwnershipTransferred",
      "type": "event"
    },
    {
      "inputs": [],
      "name": "EXPIRY_TIME",
      "outputs": [
        {
          "internalType": "uint256",
          "name": "",
          "type": "uint256"
        }
      ],
      "stateMutability": "view",
      "type": "function"
    },
    {
      "inputs": [],
      "name": "isOwner",
      "outputs": [
        {
          "internalType": "bool",
          "name": "",
          "type": "bool"
        }
      ],
      "stateMutability": "view",
      "type": "function"
    },
    {
      "inputs": [
        {
          "internalType": "address",
          "name": "_sender",
          "type": "address"
        },
        {
          "internalType": "uint256",
          "name": "_amount",
          "type": "uint256"
        },
        {
          "internalType": "bytes",
          "name": "_data",
          "type": "bytes"
        }
      ],
      "name": "onTokenTransfer",
      "outputs": [],
      "stateMutability": "nonpayable",
      "type": "function"
    },
    {
      "inputs": [],
      "name": "owner",
      "outputs": [
        {
          "internalType": "address",
          "name": "",
          "type": "address"
        }
      ],
      "stateMutability": "view",
      "type": "function"
    },
    {
      "inputs": [
        {
          "internalType": "address",
          "name": "newOwner",
          "type": "address"
        }
      ],
      "name": "transferOwnership",
      "outputs": [],
      "stateMutability": "nonpayable",
      "type": "function"
    },
    {
      "inputs": [
        {
          "internalType": "address",
          "name": "_sender",
          "type": "address"
        },
        {
          "internalType": "uint256",
          "name": "_payment",
          "type": "uint256"
        },
        {
          "internalType": "bytes32",
          "name": "_specId",
          "type": "bytes32"
        },
        {
          "internalType": "address",
          "name": "_callbackAddress",
          "type": "address"
        },
        {
          "internalType": "bytes4",
          "name": "_callbackFunctionId",
          "type": "bytes4"
        },
        {
          "internalType": "uint256",
          "name": "_nonce",
          "type": "uint256"
        },
        {
          "internalType": "uint256",
          "name": "_dataVersion",
          "type": "uint256"
        },
        {
          "internalType": "bytes",
          "name": "_data",
          "type": "bytes"
        }
      ],
      "name": "oracleRequest",
      "outputs": [],
      "stateMutability": "nonpayable",
      "type": "function"
    },
    {
      "inputs": [
        {
          "internalType": "bytes32",
          "name": "_requestId",
          "type": "bytes32"
        },
        {
          "internalType": "uint256",
          "name": "_payment",
          "type": "uint256"
        },
        {
          "internalType": "address",
          "name": "_callbackAddress",
          "type": "address"
        },
        {
          "internalType": "bytes4",
          "name": "_callbackFunctionId",
          "type": "bytes4"
        },
        {
          "internalType": "uint256",
          "name": "_expiration",
          "type": "uint256"
        },
        {
          "internalType": "bytes32",
          "name": "_data",
          "type": "bytes32"
        }
      ],
      "name": "fulfillOracleRequest",
      "outputs": [
        {
          "internalType": "bool",
          "name": "",
          "type": "bool"
        }
      ],
      "stateMutability": "nonpayable",
      "type": "function"
    },
    {
      "inputs": [
        {
          "internalType": "address",
          "name": "_node",
          "type": "address"
        }
      ],
      "name": "getAuthorizationStatus",
      "outputs": [
        {
          "internalType": "bool",
          "name": "",
          "type": "bool"
        }
      ],
      "stateMutability": "view",
      "type": "function"
    },
    {
      "inputs": [
        {
          "internalType": "address",
          "name": "_node",
          "type": "address"
        },
        {
          "internalType": "bool",
          "name": "_allowed",
          "type": "bool"
        }
      ],
      "name": "setFulfillmentPermission",
      "outputs": [],
      "stateMutability": "nonpayable",
      "type": "function"
    },
    {
      "inputs": [
        {
          "internalType": "address",
          "name": "_recipient",
          "type": "address"
        },
        {
          "internalType": "uint256",
          "name": "_amount",
          "type": "uint256"
        }
      ],
      "name": "withdraw",
      "outputs": [],
      "stateMutability": "nonpayable",
      "type": "function"
    },
    {
      "inputs": [],
      "name": "withdrawable",
      "outputs": [
        {
          "internalType": "uint256",
          "name": "",
          "type": "uint256"
        }
      ],
      "stateMutability": "view",
      "type": "function"
    },
    {
      "inputs": [
        {
          "internalType": "bytes32",
          "name": "_requestId",
          "type": "bytes32"
        },
        {
          "internalType": "uint256",
          "name": "_payment",
          "type": "uint256"
        },
        {
          "internalType": "bytes4",
          "name": "_callbackFunc",
          "type": "bytes4"
        },
        {
          "internalType": "uint256",
          "name": "_expiration",
          "type": "uint256"
        }
      ],
      "name": "cancelOracleRequest",
      "outputs": [],
      "stateMutability": "nonpayable",
      "type": "function"
    },
    {
      "inputs": [],
      "name": "getChainlinkToken",
      "outputs": [
        {
          "internalType": "address",
          "name": "",
          "type": "address"
        }
      ],
      "stateMutability": "view",
      "type": "function"
    }
  ],
  "bytecode": "0x6080604052600160045534801561001557600080fd5b50604051611f11380380611f118339818101604052602081101561003857600080fd5b8101908080519060200190929190505050336000806101000a81548173ffffffffffffffffffffffffffffffffffffffff021916908373ffffffffffffffffffffffffffffffffffffffff1602179055506000809054906101000a900473ffffffffffffffffffffffffffffffffffffffff1673ffffffffffffffffffffffffffffffffffffffff16600073ffffffffffffffffffffffffffffffffffffffff167f8be0079c531659141344cd1fd0a4f28419497f9722a3daafe3b4186f6b6457e060405160405180910390a380600160006101000a81548173ffffffffffffffffffffffffffffffffffffffff021916908373ffffffffffffffffffffffffffffffffffffffff16021790555050611dbb806101566000396000f3fe608060405234801561001057600080fd5b50600436106100ec576000357c0100000000000000000000000000000000000000000000000000000000900480637fcd56db116100a9578063a4c0ed3611610083578063a4c0ed3614610456578063d3e9c3141461053b578063f2fde38b14610597578063f3fef3a3146105db576100ec565b80637fcd56db1461039a5780638da5cb5b146103ea5780638f32d59b14610434576100ec565b8063165d35e1146100f1578063404299461461013b5780634ab0d190146102465780634b602282146102f357806350188301146103115780636ee4d5531461032f575b600080fd5b6100f9610629565b604051808273ffffffffffffffffffffffffffffffffffffffff1673ffffffffffffffffffffffffffffffffffffffff16815260200191505060405180910390f35b610244600480360361010081101561015257600080fd5b81019080803573ffffffffffffffffffffffffffffffffffffffff1690602001909291908035906020019092919080359060200190929190803573ffffffffffffffffffffffffffffffffffffffff16906020019092919080357bffffffffffffffffffffffffffffffffffffffffffffffffffffffff1916906020019092919080359060200190929190803590602001909291908035906020019064010000000081111561020057600080fd5b82018360208201111561021257600080fd5b8035906020019184600183028401116401000000008311171561023457600080fd5b9091929391929390505050610653565b005b6102d9600480360360c081101561025c57600080fd5b810190808035906020019092919080359060200190929190803573ffffffffffffffffffffffffffffffffffffffff16906020019092919080357bffffffffffffffffffffffffffffffffffffffffffffffffffffffff191690602001909291908035906020019092919080359060200190929190505050610ae2565b604051808215151515815260200191505060405180910390f35b6102fb610f7e565b6040518082815260200191505060405180910390f35b610319610f84565b6040518082815260200191505060405180910390f35b6103986004803603608081101561034557600080fd5b81019080803590602001909291908035906020019092919080357bffffffffffffffffffffffffffffffffffffffffffffffffffffffff191690602001909291908035906020019092919050505061101b565b005b6103e8600480360360408110156103b057600080fd5b81019080803573ffffffffffffffffffffffffffffffffffffffff169060200190929190803515159060200190929190505050611326565b005b6103f26113fb565b604051808273ffffffffffffffffffffffffffffffffffffffff1673ffffffffffffffffffffffffffffffffffffffff16815260200191505060405180910390f35b61043c611424565b604051808215151515815260200191505060405180910390f35b6105396004803603606081101561046c57600080fd5b81019080803573ffffffffffffffffffffffffffffffffffffffff16906020019092919080359060200190929190803590602001906401000000008111156104b357600080fd5b8201836020820111156104c557600080fd5b803590602001918460018302840111640100000000831117156104e757600080fd5b91908080601f016020809104026020016040519081016040528093929190818152602001838380828437600081840152601f19601f82011690508083019250505050505050919291929050505061147b565b005b61057d6004803603602081101561055157600080fd5b81019080803573ffffffffffffffffffffffffffffffffffffffff1690602001909291905050506117c0565b604051808215151515815260200191505060405180910390f35b6105d9600480360360208110156105ad57600080fd5b81019080803573ffffffffffffffffffffffffffffffffffffffff169060200190929190505050611816565b005b610627600480360360408110156105f157600080fd5b81019080803573ffffffffffffffffffffffffffffffffffffffff1690602001909291908035906020019092919050505061189c565b005b6000600160009054906101000a900473ffffffffffffffffffffffffffffffffffffffff16905090565b61065b610629565b73ffffffffffffffffffffffffffffffffffffffff163373ffffffffffffffffffffffffffffffffffffffff16146106fb576040517f08c379a00000000000000000000000000000000000000000000000000000000081526004018080602001828103825260138152602001807f4d75737420757365204c494e4b20746f6b656e0000000000000000000000000081525060200191505060405180910390fd5b85600160009054906101000a900473ffffffffffffffffffffffffffffffffffffffff1673ffffffffffffffffffffffffffffffffffffffff168173ffffffffffffffffffffffffffffffffffffffff1614156107c0576040517f08c379a00000000000000000000000000000000000000000000000000000000081526004018080602001828103825260178152602001807f43616e6e6f742063616c6c6261636b20746f204c494e4b00000000000000000081525060200191505060405180910390fd5b60008a86604051602001808373ffffffffffffffffffffffffffffffffffffffff1673ffffffffffffffffffffffffffffffffffffffff166c010000000000000000000000000281526014018281526020019250505060405160208183030381529060405280519060200120905060006001026002600083815260200190815260200160002054146108ba576040517f08c379a00000000000000000000000000000000000000000000000000000000081526004018080602001828103825260148152602001807f4d75737420757365206120756e6971756520494400000000000000000000000081525060200191505060405180910390fd5b60006108d161012c42611aab90919063ffffffff16565b90508a898983604051602001808581526020018473ffffffffffffffffffffffffffffffffffffffff1673ffffffffffffffffffffffffffffffffffffffff166c01000000000000000000000000028152601401837bffffffffffffffffffffffffffffffffffffffffffffffffffffffff19167bffffffffffffffffffffffffffffffffffffffffffffffffffffffff19168152600401828152602001945050505050604051602081830303815290604052805190602001206002600084815260200190815260200160002081905550897fd8d7ecc4800d25fa53ce0372f13a416d98907a7ef3d8d3bdd79cf4fe75529c658d848e8d8d878d8d8d604051808a73ffffffffffffffffffffffffffffffffffffffff1673ffffffffffffffffffffffffffffffffffffffff1681526020018981526020018881526020018773ffffffffffffffffffffffffffffffffffffffff1673ffffffffffffffffffffffffffffffffffffffff168152602001867bffffffffffffffffffffffffffffffffffffffffffffffffffffffff19167bffffffffffffffffffffffffffffffffffffffffffffffffffffffff19168152602001858152602001848152602001806020018281038252848482818152602001925080828437600081840152601f19601f8201169050808301925050509a505050505050505050505060405180910390a2505050505050505050505050565b6000600360003373ffffffffffffffffffffffffffffffffffffffff1673ffffffffffffffffffffffffffffffffffffffff16815260200190815260200160002060009054906101000a900460ff1680610b6e5750610b3f6113fb565b73ffffffffffffffffffffffffffffffffffffffff163373ffffffffffffffffffffffffffffffffffffffff16145b610bc3576040517f08c379a000000000000000000000000000000000000000000000000000000000815260040180806020018281038252602a815260200180611d5c602a913960400191505060405180910390fd5b86600060010260026000838152602001908152602001600020541415610c51576040517f08c379a000000000000000000000000000000000000000000000000000000000815260040180806020018281038252601b8152602001807f4d757374206861766520612076616c696420726571756573744964000000000081525060200191505060405180910390fd5b600087878787604051602001808581526020018473ffffffffffffffffffffffffffffffffffffffff1673ffffffffffffffffffffffffffffffffffffffff166c01000000000000000000000000028152601401837bffffffffffffffffffffffffffffffffffffffffffffffffffffffff19167bffffffffffffffffffffffffffffffffffffffffffffffffffffffff1916815260040182815260200194505050505060405160208183030381529060405280519060200120905080600260008b81526020019081526020016000205414610d95576040517f08c379a000000000000000000000000000000000000000000000000000000000815260040180806020018281038252601e8152602001807f506172616d7320646f206e6f74206d617463682072657175657374204944000081525060200191505060405180910390fd5b610daa88600454611aab90919063ffffffff16565b600481905550600260008a81526020019081526020016000206000905562061a805a1015610e40576040517f08c379a00000000000000000000000000000000000000000000000000000000081526004018080602001828103825260208152602001807f4d7573742070726f7669646520636f6e73756d657220656e6f7567682067617381525060200191505060405180910390fd5b60008773ffffffffffffffffffffffffffffffffffffffff16878b876040516024018083815260200182815260200192505050604051602081830303815290604052907bffffffffffffffffffffffffffffffffffffffffffffffffffffffff19166020820180517bffffffffffffffffffffffffffffffffffffffffffffffffffffffff83818316178352505050506040518082805190602001908083835b60208310610f035780518252602082019150602081019050602083039250610ee0565b6001836020036101000a0380198251168184511680821785525050505050509050019150506000604051808303816000865af19150503d8060008114610f65576040519150601f19603f3d011682016040523d82523d6000602084013e610f6a565b606091505b505090508093505050509695505050505050565b61012c81565b6000610f8e611424565b611000576040517f08c379a00000000000000000000000000000000000000000000000000000000081526004018080602001828103825260208152602001807f4f776e61626c653a2063616c6c6572206973206e6f7420746865206f776e657281525060200191505060405180910390fd5b6110166001600454611b3390919063ffffffff16565b905090565b600083338484604051602001808581526020018473ffffffffffffffffffffffffffffffffffffffff1673ffffffffffffffffffffffffffffffffffffffff166c01000000000000000000000000028152601401837bffffffffffffffffffffffffffffffffffffffffffffffffffffffff19167bffffffffffffffffffffffffffffffffffffffffffffffffffffffff191681526004018281526020019450505050506040516020818303038152906040528051906020012090506002600086815260200190815260200160002054811461115f576040517f08c379a000000000000000000000000000000000000000000000000000000000815260040180806020018281038252601e8152602001807f506172616d7320646f206e6f74206d617463682072657175657374204944000081525060200191505060405180910390fd5b428211156111d5576040517f08c379a00000000000000000000000000000000000000000000000000000000081526004018080602001828103825260168152602001807f52657175657374206973206e6f7420657870697265640000000000000000000081525060200191505060405180910390fd5b6002600086815260200190815260200160002060009055847fa7842b9ec549398102c0d91b1b9919b2f20558aefdadf57528a95c6cd3292e9360405160405180910390a2600160009054906101000a900473ffffffffffffffffffffffffffffffffffffffff1673ffffffffffffffffffffffffffffffffffffffff1663a9059cbb33866040518363ffffffff167c0100000000000000000000000000000000000000000000000000000000028152600401808373ffffffffffffffffffffffffffffffffffffffff1673ffffffffffffffffffffffffffffffffffffffff16815260200182815260200192505050602060405180830381600087803b1580156112de57600080fd5b505af11580156112f2573d6000803e3d6000fd5b505050506040513d602081101561130857600080fd5b810190808051906020019092919050505061131f57fe5b5050505050565b61132e611424565b6113a0576040517f08c379a00000000000000000000000000000000000000000000000000000000081526004018080602001828103825260208152602001807f4f776e61626c653a2063616c6c6572206973206e6f7420746865206f776e657281525060200191505060405180910390fd5b80600360008473ffffffffffffffffffffffffffffffffffffffff1673ffffffffffffffffffffffffffffffffffffffff16815260200190815260200160002060006101000a81548160ff0219169083151502179055505050565b60008060009054906101000a900473ffffffffffffffffffffffffffffffffffffffff16905090565b60008060009054906101000a900473ffffffffffffffffffffffffffffffffffffffff1673ffffffffffffffffffffffffffffffffffffffff163373ffffffffffffffffffffffffffffffffffffffff1614905090565b611483610629565b73ffffffffffffffffffffffffffffffffffffffff163373ffffffffffffffffffffffffffffffffffffffff1614611523576040517f08c379a00000000000000000000000000000000000000000000000000000000081526004018080602001828103825260138152602001807f4d75737420757365204c494e4b20746f6b656e0000000000000000000000000081525060200191505060405180910390fd5b806002602002600401815110156115a2576040517f08c379a00000000000000000000000000000000000000000000000000000000081526004018080602001828103825260168152602001807f496e76616c69642072657175657374206c656e6774680000000000000000000081525060200191505060405180910390fd5b8160006020820151905063404299467c0100000000000000000000000000000000000000000000000000000000027bffffffffffffffffffffffffffffffffffffffffffffffffffffffff1916817bffffffffffffffffffffffffffffffffffffffffffffffffffffffff191614611682576040517f08c379a000000000000000000000000000000000000000000000000000000000815260040180806020018281038252601e8152602001807f4d757374207573652077686974656c69737465642066756e6374696f6e73000081525060200191505060405180910390fd5b85602485015284604485015260003073ffffffffffffffffffffffffffffffffffffffff16856040518082805190602001908083835b602083106116db57805182526020820191506020810190506020830392506116b8565b6001836020036101000a038019825116818451168082178552505050505050905001915050600060405180830381855af49150503d806000811461173b576040519150601f19603f3d011682016040523d82523d6000602084013e611740565b606091505b50509050806117b7576040517f08c379a00000000000000000000000000000000000000000000000000000000081526004018080602001828103825260188152602001807f556e61626c6520746f206372656174652072657175657374000000000000000081525060200191505060405180910390fd5b50505050505050565b6000600360008373ffffffffffffffffffffffffffffffffffffffff1673ffffffffffffffffffffffffffffffffffffffff16815260200190815260200160002060009054906101000a900460ff169050919050565b61181e611424565b611890576040517f08c379a00000000000000000000000000000000000000000000000000000000081526004018080602001828103825260208152602001807f4f776e61626c653a2063616c6c6572206973206e6f7420746865206f776e657281525060200191505060405180910390fd5b61189981611bbc565b50565b6118a4611424565b611916576040517f08c379a00000000000000000000000000000000000000000000000000000000081526004018080602001828103825260208152602001807f4f776e61626c653a2063616c6c6572206973206e6f7420746865206f776e657281525060200191505060405180910390fd5b8061192b600182611aab90919063ffffffff16565b6004541015611985576040517f08c379a0000000000000000000000000000000000000000000000000000000008152600401808060200182810382526035815260200180611d276035913960400191505060405180910390fd5b61199a82600454611b3390919063ffffffff16565b600481905550600160009054906101000a900473ffffffffffffffffffffffffffffffffffffffff1673ffffffffffffffffffffffffffffffffffffffff1663a9059cbb84846040518363ffffffff167c0100000000000000000000000000000000000000000000000000000000028152600401808373ffffffffffffffffffffffffffffffffffffffff1673ffffffffffffffffffffffffffffffffffffffff16815260200182815260200192505050602060405180830381600087803b158015611a6557600080fd5b505af1158015611a79573d6000803e3d6000fd5b505050506040513d6020811015611a8f57600080fd5b8101908080519060200190929190505050611aa657fe5b505050565b600080828401905083811015611b29576040517f08c379a000000000000000000000000000000000000000000000000000000000815260040180806020018281038252601b8152602001807f536166654d6174683a206164646974696f6e206f766572666c6f77000000000081525060200191505060405180910390fd5b8091505092915050565b600082821115611bab576040517f08c379a000000000000000000000000000000000000000000000000000000000815260040180806020018281038252601e8152602001807f536166654d6174683a207375627472616374696f6e206f766572666c6f77000081525060200191505060405180910390fd5b600082840390508091505092915050565b600073ffffffffffffffffffffffffffffffffffffffff168173ffffffffffffffffffffffffffffffffffffffff161415611c42576040517f08c379a0000000000000000000000000000000000000000000000000000000008152600401808060200182810382526026815260200180611d016026913960400191505060405180910390fd5b8073ffffffffffffffffffffffffffffffffffffffff166000809054906101000a900473ffffffffffffffffffffffffffffffffffffffff1673ffffffffffffffffffffffffffffffffffffffff167f8be0079c531659141344cd1fd0a4f28419497f9722a3daafe3b4186f6b6457e060405160405180910390a3806000806101000a81548173ffffffffffffffffffffffffffffffffffffffff021916908373ffffffffffffffffffffffffffffffffffffffff1602179055505056fe4f776e61626c653a206e6577206f776e657220697320746865207a65726f2061646472657373416d6f756e74207265717565737465642069732067726561746572207468616e20776974686472617761626c652062616c616e63654e6f7420616e20617574686f72697a6564206e6f646520746f2066756c66696c6c207265717565737473a264697066735822122020c3df35bf5e744a070c11813f1c379bfb88e41d79911711046c48a54316f99564736f6c63430006060033",
  "immutableReferences": {},
  "source": "// SPDX-License-Identifier: MIT\npragma solidity 0.6.6;\n\nimport \"./LinkTokenReceiver.sol\";\nimport \"./interfaces/ChainlinkRequestInterface.sol\";\nimport \"./interfaces/OracleInterface.sol\";\nimport \"./interfaces/LinkTokenInterface.sol\";\nimport \"./interfaces/WithdrawalInterface.sol\";\nimport \"./vendor/Ownable.sol\";\nimport \"./vendor/SafeMathChainlink.sol\";\n\n/**\n * @title The Chainlink Oracle contract\n * @notice Node operators can deploy this contract to fulfill requests sent to them\n */\ncontract Oracle is ChainlinkRequestInterface, OracleInterface, Ownable, LinkTokenReceiver, WithdrawalInterface {\n  using SafeMathChainlink for uint256;\n\n  uint256 constant public EXPIRY_TIME = 5 minutes;\n  uint256 constant private MINIMUM_CONSUMER_GAS_LIMIT = 400000;\n  // We initialize fields to 1 instead of 0 so that the first invocation\n  // does not cost more gas.\n  uint256 constant private ONE_FOR_CONSISTENT_GAS_COST = 1;\n\n  LinkTokenInterface internal LinkToken;\n  mapping(bytes32 => bytes32) private commitments;\n  mapping(address => bool) private authorizedNodes;\n  uint256 private withdrawableTokens = ONE_FOR_CONSISTENT_GAS_COST;\n\n  event OracleRequest(\n    bytes32 indexed specId,\n    address requester,\n    bytes32 requestId,\n    uint256 payment,\n    address callbackAddr,\n    bytes4 callbackFunctionId,\n    uint256 cancelExpiration,\n    uint256 dataVersion,\n    bytes data\n  );\n\n  event CancelOracleRequest(\n    bytes32 indexed requestId\n  );\n\n  /**\n   * @notice Deploy with the address of the LINK token\n   * @dev Sets the LinkToken address for the imported LinkTokenInterface\n   * @param _link The address of the LINK token\n   */\n  constructor(address _link)\n    public\n    Ownable()\n  {\n    LinkToken = LinkTokenInterface(_link); // external but already deployed and unalterable\n  }\n\n  /**\n   * @notice Creates the Chainlink request\n   * @dev Stores the hash of the params as the on-chain commitment for the request.\n   * Emits OracleRequest event for the Chainlink node to detect.\n   * @param _sender The sender of the request\n   * @param _payment The amount of payment given (specified in wei)\n   * @param _specId The Job Specification ID\n   * @param _callbackAddress The callback address for the response\n   * @param _callbackFunctionId The callback function ID for the response\n   * @param _nonce The nonce sent by the requester\n   * @param _dataVersion The specified data version\n   * @param _data The CBOR payload of the request\n   */\n  function oracleRequest(\n    address _sender,\n    uint256 _payment,\n    bytes32 _specId,\n    address _callbackAddress,\n    bytes4 _callbackFunctionId,\n    uint256 _nonce,\n    uint256 _dataVersion,\n    bytes calldata _data\n  )\n    external\n    override\n    onlyLINK()\n    checkCallbackAddress(_callbackAddress)\n  {\n    bytes32 requestId = keccak256(abi.encodePacked(_sender, _nonce));\n    require(commitments[requestId] == 0, \"Must use a unique ID\");\n    // solhint-disable-next-line not-rely-on-time\n    uint256 expiration = now.add(EXPIRY_TIME);\n\n    commitments[requestId] = keccak256(\n      abi.encodePacked(\n        _payment,\n        _callbackAddress,\n        _callbackFunctionId,\n        expiration\n      )\n    );\n\n    emit OracleRequest(\n      _specId,\n      _sender,\n      requestId,\n      _payment,\n      _callbackAddress,\n      _callbackFunctionId,\n      expiration,\n      _dataVersion,\n      _data);\n  }\n\n  /**\n   * @notice Called by the Chainlink node to fulfill requests\n   * @dev Given params must hash back to the commitment stored from `oracleRequest`.\n   * Will call the callback address' callback function without bubbling up error\n   * checking in a `require` so that the node can get paid.\n   * @param _requestId The fulfillment request ID that must match the requester's\n   * @param _payment The payment amount that will be released for the oracle (specified in wei)\n   * @param _callbackAddress The callback address to call for fulfillment\n   * @param _callbackFunctionId The callback function ID to use for fulfillment\n   * @param _expiration The expiration that the node should respond by before the requester can cancel\n   * @param _data The data to return to the consuming contract\n   * @return Status if the external call was successful\n   */\n  function fulfillOracleRequest(\n    bytes32 _requestId,\n    uint256 _payment,\n    address _callbackAddress,\n    bytes4 _callbackFunctionId,\n    uint256 _expiration,\n    bytes32 _data\n  )\n    external\n    onlyAuthorizedNode\n    override\n    isValidRequest(_requestId)\n    returns (bool)\n  {\n    bytes32 paramsHash = keccak256(\n      abi.encodePacked(\n        _payment,\n        _callbackAddress,\n        _callbackFunctionId,\n        _expiration\n      )\n    );\n    require(commitments[_requestId] == paramsHash, \"Params do not match request ID\");\n    withdrawableTokens = withdrawableTokens.add(_payment);\n    delete commitments[_requestId];\n    require(gasleft() >= MINIMUM_CONSUMER_GAS_LIMIT, \"Must provide consumer enough gas\");\n    // All updates to the oracle's fulfillment should come before calling the\n    // callback(addr+functionId) as it is untrusted.\n    // See: https://solidity.readthedocs.io/en/develop/security-considerations.html#use-the-checks-effects-interactions-pattern\n    (bool success, ) = _callbackAddress.call(abi.encodeWithSelector(_callbackFunctionId, _requestId, _data)); // solhint-disable-line avoid-low-level-calls\n    return success;\n  }\n\n  /**\n   * @notice Use this to check if a node is authorized for fulfilling requests\n   * @param _node The address of the Chainlink node\n   * @return The authorization status of the node\n   */\n  function getAuthorizationStatus(address _node)\n    external\n    view\n    override\n    returns (bool)\n  {\n    return authorizedNodes[_node];\n  }\n\n  /**\n   * @notice Sets the fulfillment permission for a given node. Use `true` to allow, `false` to disallow.\n   * @param _node The address of the Chainlink node\n   * @param _allowed Bool value to determine if the node can fulfill requests\n   */\n  function setFulfillmentPermission(address _node, bool _allowed)\n    external\n    override\n    onlyOwner()\n  {\n    authorizedNodes[_node] = _allowed;\n  }\n\n  /**\n   * @notice Allows the node operator to withdraw earned LINK to a given address\n   * @dev The owner of the contract can be another wallet and does not have to be a Chainlink node\n   * @param _recipient The address to send the LINK token to\n   * @param _amount The amount to send (specified in wei)\n   */\n  function withdraw(address _recipient, uint256 _amount)\n    external\n    override(OracleInterface, WithdrawalInterface)\n    onlyOwner\n    hasAvailableFunds(_amount)\n  {\n    withdrawableTokens = withdrawableTokens.sub(_amount);\n    assert(LinkToken.transfer(_recipient, _amount));\n  }\n\n  /**\n   * @notice Displays the amount of LINK that is available for the node operator to withdraw\n   * @dev We use `ONE_FOR_CONSISTENT_GAS_COST` in place of 0 in storage\n   * @return The amount of withdrawable LINK on the contract\n   */\n  function withdrawable()\n    external\n    view\n    override(OracleInterface, WithdrawalInterface)\n    onlyOwner()\n    returns (uint256)\n  {\n    return withdrawableTokens.sub(ONE_FOR_CONSISTENT_GAS_COST);\n  }\n\n  /**\n   * @notice Allows requesters to cancel requests sent to this oracle contract. Will transfer the LINK\n   * sent for the request back to the requester's address.\n   * @dev Given params must hash to a commitment stored on the contract in order for the request to be valid\n   * Emits CancelOracleRequest event.\n   * @param _requestId The request ID\n   * @param _payment The amount of payment given (specified in wei)\n   * @param _callbackFunc The requester's specified callback address\n   * @param _expiration The time of the expiration for the request\n   */\n  function cancelOracleRequest(\n    bytes32 _requestId,\n    uint256 _payment,\n    bytes4 _callbackFunc,\n    uint256 _expiration\n  )\n    external\n    override\n  {\n    bytes32 paramsHash = keccak256(\n      abi.encodePacked(\n        _payment,\n        msg.sender,\n        _callbackFunc,\n        _expiration)\n    );\n    require(paramsHash == commitments[_requestId], \"Params do not match request ID\");\n    // solhint-disable-next-line not-rely-on-time\n    require(_expiration <= now, \"Request is not expired\");\n\n    delete commitments[_requestId];\n    emit CancelOracleRequest(_requestId);\n\n    assert(LinkToken.transfer(msg.sender, _payment));\n  }\n\n  /**\n   * @notice Returns the address of the LINK token\n   * @dev This is the public implementation for chainlinkTokenAddress, which is\n   * an internal method of the ChainlinkClient contract\n   */\n  function getChainlinkToken()\n    public\n    view\n    override\n    returns (address)\n  {\n    return address(LinkToken);\n  }\n\n  // MODIFIERS\n\n  /**\n   * @dev Reverts if amount requested is greater than withdrawable balance\n   * @param _amount The given amount to compare to `withdrawableTokens`\n   */\n  modifier hasAvailableFunds(uint256 _amount) {\n    require(withdrawableTokens >= _amount.add(ONE_FOR_CONSISTENT_GAS_COST), \"Amount requested is greater than withdrawable balance\");\n    _;\n  }\n\n  /**\n   * @dev Reverts if request ID does not exist\n   * @param _requestId The given request ID to check in stored `commitments`\n   */\n  modifier isValidRequest(bytes32 _requestId) {\n    require(commitments[_requestId] != 0, \"Must have a valid requestId\");\n    _;\n  }\n\n  /**\n   * @dev Reverts if `msg.sender` is not authorized to fulfill requests\n   */\n  modifier onlyAuthorizedNode() {\n    require(authorizedNodes[msg.sender] || msg.sender == owner(), \"Not an authorized node to fulfill requests\");\n    _;\n  }\n\n  /**\n   * @dev Reverts if the callback address is the LINK token\n   * @param _to The callback address\n   */\n  modifier checkCallbackAddress(address _to) {\n    require(_to != address(LinkToken), \"Cannot callback to LINK\");\n    _;\n  }\n\n}\n",
  "sourcePath": "/Users/dmolina/TFM/truffle-react/contracts/.deps/npm/@chainlink/contracts/src/v0.6/Oracle.sol",
  "compiler": {
    "name": "solc",
    "version": "0.6.6+commit.6c089d02.Emscripten.clang"
  },
  "schemaVersion": "3.4.3",
  "updatedAt": "2021-09-05T18:23:46.979Z",
  "devdoc": {
    "methods": {
      "cancelOracleRequest(bytes32,uint256,bytes4,uint256)": {
        "details": "Given params must hash to a commitment stored on the contract in order for the request to be valid Emits CancelOracleRequest event.",
        "params": {
          "_callbackFunc": "The requester's specified callback address",
          "_expiration": "The time of the expiration for the request",
          "_payment": "The amount of payment given (specified in wei)",
          "_requestId": "The request ID"
        }
      },
      "constructor": {
        "details": "Sets the LinkToken address for the imported LinkTokenInterface",
        "params": {
          "_link": "The address of the LINK token"
        }
      },
      "fulfillOracleRequest(bytes32,uint256,address,bytes4,uint256,bytes32)": {
        "details": "Given params must hash back to the commitment stored from `oracleRequest`. Will call the callback address' callback function without bubbling up error checking in a `require` so that the node can get paid.",
        "params": {
          "_callbackAddress": "The callback address to call for fulfillment",
          "_callbackFunctionId": "The callback function ID to use for fulfillment",
          "_data": "The data to return to the consuming contract",
          "_expiration": "The expiration that the node should respond by before the requester can cancel",
          "_payment": "The payment amount that will be released for the oracle (specified in wei)",
          "_requestId": "The fulfillment request ID that must match the requester's"
        },
        "returns": {
          "_0": "Status if the external call was successful"
        }
      },
      "getAuthorizationStatus(address)": {
        "params": {
          "_node": "The address of the Chainlink node"
        },
        "returns": {
          "_0": "The authorization status of the node"
        }
      },
      "getChainlinkToken()": {
        "details": "This is the public implementation for chainlinkTokenAddress, which is an internal method of the ChainlinkClient contract"
      },
      "isOwner()": {
        "details": "Returns true if the caller is the current owner."
      },
      "onTokenTransfer(address,uint256,bytes)": {
        "details": "The data payload's first 2 words will be overwritten by the `_sender` and `_amount` values to ensure correctness. Calls oracleRequest.",
        "params": {
          "_amount": "Amount of LINK sent (specified in wei)",
          "_data": "Payload of the transaction",
          "_sender": "Address of the sender"
        }
      },
      "oracleRequest(address,uint256,bytes32,address,bytes4,uint256,uint256,bytes)": {
        "details": "Stores the hash of the params as the on-chain commitment for the request. Emits OracleRequest event for the Chainlink node to detect.",
        "params": {
          "_callbackAddress": "The callback address for the response",
          "_callbackFunctionId": "The callback function ID for the response",
          "_data": "The CBOR payload of the request",
          "_dataVersion": "The specified data version",
          "_nonce": "The nonce sent by the requester",
          "_payment": "The amount of payment given (specified in wei)",
          "_sender": "The sender of the request",
          "_specId": "The Job Specification ID"
        }
      },
      "owner()": {
        "details": "Returns the address of the current owner."
      },
      "setFulfillmentPermission(address,bool)": {
        "params": {
          "_allowed": "Bool value to determine if the node can fulfill requests",
          "_node": "The address of the Chainlink node"
        }
      },
      "transferOwnership(address)": {
        "details": "Transfers ownership of the contract to a new account (`newOwner`). Can only be called by the current owner."
      },
      "withdraw(address,uint256)": {
        "details": "The owner of the contract can be another wallet and does not have to be a Chainlink node",
        "params": {
          "_amount": "The amount to send (specified in wei)",
          "_recipient": "The address to send the LINK token to"
        }
      },
      "withdrawable()": {
        "details": "We use `ONE_FOR_CONSISTENT_GAS_COST` in place of 0 in storage",
        "returns": {
          "_0": "The amount of withdrawable LINK on the contract"
        }
      }
    },
    "title": "The Chainlink Oracle contract"
  },
  "userdoc": {
    "methods": {
      "cancelOracleRequest(bytes32,uint256,bytes4,uint256)": {
        "notice": "Allows requesters to cancel requests sent to this oracle contract. Will transfer the LINK sent for the request back to the requester's address."
      },
      "constructor": "Deploy with the address of the LINK token",
      "fulfillOracleRequest(bytes32,uint256,address,bytes4,uint256,bytes32)": {
        "notice": "Called by the Chainlink node to fulfill requests"
      },
      "getAuthorizationStatus(address)": {
        "notice": "Use this to check if a node is authorized for fulfilling requests"
      },
      "getChainlinkToken()": {
        "notice": "Returns the address of the LINK token"
      },
      "onTokenTransfer(address,uint256,bytes)": {
        "notice": "Called when LINK is sent to the contract via `transferAndCall`"
      },
      "oracleRequest(address,uint256,bytes32,address,bytes4,uint256,uint256,bytes)": {
        "notice": "Creates the Chainlink request"
      },
      "setFulfillmentPermission(address,bool)": {
        "notice": "Sets the fulfillment permission for a given node. Use `true` to allow, `false` to disallow."
      },
      "withdraw(address,uint256)": {
        "notice": "Allows the node operator to withdraw earned LINK to a given address"
      },
      "withdrawable()": {
        "notice": "Displays the amount of LINK that is available for the node operator to withdraw"
      }
    },
    "notice": "Node operators can deploy this contract to fulfill requests sent to them"
  }
}